{
  "address": "0x178Fc07106BAda5d423003d62e8aABb0850e1713",
  "abi": [
    {
      "inputs": [],
      "stateMutability": "nonpayable",
      "type": "constructor"
    },
    {
      "anonymous": false,
      "inputs": [
        {
          "indexed": false,
          "internalType": "string",
          "name": "marketID",
          "type": "string"
        },
        {
          "indexed": false,
          "internalType": "string",
          "name": "orderHash",
          "type": "string"
        },
        {
          "indexed": false,
          "internalType": "string",
          "name": "cid",
          "type": "string"
        }
      ],
      "name": "DerivativeOrderCreated",
      "type": "event"
    },
    {
      "anonymous": false,
      "inputs": [
        {
          "indexed": false,
          "internalType": "string",
          "name": "marketID",
          "type": "string"
        },
        {
          "indexed": false,
          "internalType": "string",
          "name": "orderHash",
          "type": "string"
        },
        {
          "indexed": false,
          "internalType": "bool",
          "name": "success",
          "type": "bool"
        }
      ],
      "name": "SpotOrderCancelled",
      "type": "event"
    },
    {
      "anonymous": false,
      "inputs": [
        {
          "indexed": false,
          "internalType": "string",
          "name": "marketID",
          "type": "string"
        },
        {
          "indexed": false,
          "internalType": "string",
          "name": "orderHash",
          "type": "string"
        },
        {
          "indexed": false,
          "internalType": "string",
          "name": "cid",
          "type": "string"
        },
        {
          "indexed": false,
          "internalType": "string",
          "name": "orderType",
          "type": "string"
        }
      ],
      "name": "SpotOrderCreated",
      "type": "event"
    },
    {
      "anonymous": false,
      "inputs": [
        {
          "indexed": false,
          "internalType": "address",
          "name": "trader",
          "type": "address"
        }
      ],
      "name": "TraderAuthorized",
      "type": "event"
    },
    {
      "anonymous": false,
      "inputs": [
        {
          "indexed": false,
          "internalType": "address",
          "name": "trader",
          "type": "address"
        }
      ],
      "name": "TraderRevoked",
      "type": "event"
    },
    {
      "inputs": [
        {
          "internalType": "address",
          "name": "trader",
          "type": "address"
        }
      ],
      "name": "authorizeTrader",
      "outputs": [],
      "stateMutability": "nonpayable",
      "type": "function"
    },
    {
      "inputs": [
        {
          "internalType": "address",
          "name": "",
          "type": "address"
        }
      ],
      "name": "authorizedTraders",
      "outputs": [
        {
          "internalType": "bool",
          "name": "",
          "type": "bool"
        }
      ],
      "stateMutability": "view",
      "type": "function"
    },
    {
      "inputs": [
        {
          "components": [
            {
              "internalType": "string",
              "name": "marketID",
              "type": "string"
            },
            {
              "internalType": "string",
              "name": "subaccountID",
              "type": "string"
            },
            {
              "internalType": "string",
              "name": "orderHash",
              "type": "string"
            },
            {
              "internalType": "int32",
              "name": "orderMask",
              "type": "int32"
            },
            {
              "internalType": "string",
              "name": "cid",
              "type": "string"
            }
          ],
          "internalType": "struct IExchangeModule.OrderData[]",
          "name": "orderData",
          "type": "tuple[]"
        }
      ],
      "name": "batchCancelSpotOrders",
      "outputs": [
        {
          "internalType": "bool[]",
          "name": "success",
          "type": "bool[]"
        }
      ],
      "stateMutability": "nonpayable",
      "type": "function"
    },
    {
      "inputs": [
        {
          "components": [
            {
              "internalType": "string",
              "name": "marketID",
              "type": "string"
            },
            {
              "internalType": "string",
              "name": "subaccountID",
              "type": "string"
            },
            {
              "internalType": "string",
              "name": "feeRecipient",
              "type": "string"
            },
            {
              "internalType": "uint256",
              "name": "price",
              "type": "uint256"
            },
            {
              "internalType": "uint256",
              "name": "quantity",
              "type": "uint256"
            },
            {
              "internalType": "string",
              "name": "cid",
              "type": "string"
            },
            {
              "internalType": "string",
              "name": "orderType",
              "type": "string"
            },
            {
              "internalType": "uint256",
              "name": "triggerPrice",
              "type": "uint256"
            }
          ],
          "internalType": "struct IExchangeModule.SpotOrder[]",
          "name": "orders",
          "type": "tuple[]"
        }
      ],
      "name": "batchCreateSpotLimitOrders",
      "outputs": [
        {
          "components": [
            {
              "internalType": "string[]",
              "name": "orderHashes",
              "type": "string[]"
            },
            {
              "internalType": "string[]",
              "name": "createdOrdersCids",
              "type": "string[]"
            },
            {
              "internalType": "string[]",
              "name": "failedOrdersCids",
              "type": "string[]"
            }
          ],
          "internalType": "struct IExchangeModule.BatchCreateSpotLimitOrdersResponse",
          "name": "response",
          "type": "tuple"
        }
      ],
      "stateMutability": "nonpayable",
      "type": "function"
    },
    {
      "inputs": [
        {
          "internalType": "uint32[]",
          "name": "nonces",
          "type": "uint32[]"
        },
        {
          "internalType": "string",
          "name": "denom",
          "type": "string"
        },
        {
          "internalType": "uint256[]",
          "name": "amounts",
          "type": "uint256[]"
        }
      ],
      "name": "batchDepositToSubaccounts",
      "outputs": [
        {
          "internalType": "bool[]",
          "name": "",
          "type": "bool[]"
        }
      ],
      "stateMutability": "nonpayable",
      "type": "function"
    },
    {
      "inputs": [
        {
          "internalType": "uint32[]",
          "name": "nonces",
          "type": "uint32[]"
        },
        {
          "internalType": "string",
          "name": "denom",
          "type": "string"
        },
        {
          "internalType": "uint256[]",
          "name": "amounts",
          "type": "uint256[]"
        }
      ],
      "name": "batchWithdrawFromSubaccounts",
      "outputs": [
        {
          "internalType": "bool[]",
          "name": "",
          "type": "bool[]"
        }
      ],
      "stateMutability": "nonpayable",
      "type": "function"
    },
    {
      "inputs": [
        {
          "internalType": "string",
          "name": "marketID",
          "type": "string"
        },
        {
          "internalType": "string",
          "name": "subaccountID",
          "type": "string"
        },
        {
          "internalType": "string",
          "name": "orderHash",
          "type": "string"
        },
        {
          "internalType": "string",
          "name": "cid",
          "type": "string"
        }
      ],
      "name": "cancelSpotOrder",
      "outputs": [
        {
          "internalType": "bool",
          "name": "success",
          "type": "bool"
        }
      ],
      "stateMutability": "nonpayable",
      "type": "function"
    },
    {
      "inputs": [
        {
          "components": [
            {
              "internalType": "string",
              "name": "marketID",
              "type": "string"
            },
            {
              "internalType": "string",
              "name": "subaccountID",
              "type": "string"
            },
            {
              "internalType": "string",
              "name": "feeRecipient",
              "type": "string"
            },
            {
              "internalType": "uint256",
              "name": "price",
              "type": "uint256"
            },
            {
              "internalType": "uint256",
              "name": "quantity",
              "type": "uint256"
            },
            {
              "internalType": "string",
              "name": "cid",
              "type": "string"
            },
            {
              "internalType": "string",
              "name": "orderType",
              "type": "string"
            },
            {
              "internalType": "uint256",
              "name": "margin",
              "type": "uint256"
            },
            {
              "internalType": "uint256",
              "name": "triggerPrice",
              "type": "uint256"
            }
          ],
          "internalType": "struct IExchangeModule.DerivativeOrder",
          "name": "order",
          "type": "tuple"
        }
      ],
      "name": "createDerivativeLimitOrder",
      "outputs": [
        {
          "components": [
            {
              "internalType": "string",
              "name": "orderHash",
              "type": "string"
            },
            {
              "internalType": "string",
              "name": "cid",
              "type": "string"
            }
          ],
          "internalType": "struct IExchangeModule.CreateDerivativeLimitOrderResponse",
          "name": "response",
          "type": "tuple"
        }
      ],
      "stateMutability": "nonpayable",
      "type": "function"
    },
    {
      "inputs": [
        {
          "internalType": "string",
          "name": "marketID",
          "type": "string"
        },
        {
          "internalType": "string",
          "name": "subaccountID",
          "type": "string"
        },
        {
          "internalType": "uint256",
          "name": "price",
          "type": "uint256"
        },
        {
          "internalType": "uint256",
          "name": "quantity",
          "type": "uint256"
        },
        {
          "internalType": "string",
          "name": "cid",
          "type": "string"
        }
      ],
      "name": "createSpotBuyOrder",
      "outputs": [
        {
          "components": [
            {
              "internalType": "string",
              "name": "orderHash",
              "type": "string"
            },
            {
              "internalType": "string",
              "name": "cid",
              "type": "string"
            }
          ],
          "internalType": "struct IExchangeModule.CreateSpotLimitOrderResponse",
          "name": "response",
          "type": "tuple"
        }
      ],
      "stateMutability": "nonpayable",
      "type": "function"
    },
    {
      "inputs": [
        {
          "components": [
            {
              "internalType": "string",
              "name": "marketID",
              "type": "string"
            },
            {
              "internalType": "string",
              "name": "subaccountID",
              "type": "string"
            },
            {
              "internalType": "string",
              "name": "feeRecipient",
              "type": "string"
            },
            {
              "internalType": "uint256",
              "name": "price",
              "type": "uint256"
            },
            {
              "internalType": "uint256",
              "name": "quantity",
              "type": "uint256"
            },
            {
              "internalType": "string",
              "name": "cid",
              "type": "string"
            },
            {
              "internalType": "string",
              "name": "orderType",
              "type": "string"
            },
            {
              "internalType": "uint256",
              "name": "triggerPrice",
              "type": "uint256"
            }
          ],
          "internalType": "struct IExchangeModule.SpotOrder",
          "name": "order",
          "type": "tuple"
        }
      ],
      "name": "createSpotLimitOrder",
      "outputs": [
        {
          "components": [
            {
              "internalType": "string",
              "name": "orderHash",
              "type": "string"
            },
            {
              "internalType": "string",
              "name": "cid",
              "type": "string"
            }
          ],
          "internalType": "struct IExchangeModule.CreateSpotLimitOrderResponse",
          "name": "response",
          "type": "tuple"
        }
      ],
      "stateMutability": "nonpayable",
      "type": "function"
    },
    {
      "inputs": [
        {
          "internalType": "string",
          "name": "marketID",
          "type": "string"
        },
        {
          "internalType": "string",
          "name": "subaccountID",
          "type": "string"
        },
        {
          "internalType": "uint256",
          "name": "quantity",
          "type": "uint256"
        },
        {
          "internalType": "string",
          "name": "cid",
          "type": "string"
        }
      ],
      "name": "createSpotMarketBuyOrder",
      "outputs": [
        {
          "components": [
            {
              "internalType": "string",
              "name": "orderHash",
              "type": "string"
            },
            {
              "internalType": "string",
              "name": "cid",
              "type": "string"
            },
            {
              "internalType": "uint256",
              "name": "quantity",
              "type": "uint256"
            },
            {
              "internalType": "uint256",
              "name": "price",
              "type": "uint256"
            },
            {
              "internalType": "uint256",
              "name": "fee",
              "type": "uint256"
            }
          ],
          "internalType": "struct IExchangeModule.CreateSpotMarketOrderResponse",
          "name": "response",
          "type": "tuple"
        }
      ],
      "stateMutability": "nonpayable",
      "type": "function"
    },
    {
      "inputs": [
        {
          "components": [
            {
              "internalType": "string",
              "name": "marketID",
              "type": "string"
            },
            {
              "internalType": "string",
              "name": "subaccountID",
              "type": "string"
            },
            {
              "internalType": "string",
              "name": "feeRecipient",
              "type": "string"
            },
            {
              "internalType": "uint256",
              "name": "price",
              "type": "uint256"
            },
            {
              "internalType": "uint256",
              "name": "quantity",
              "type": "uint256"
            },
            {
              "internalType": "string",
              "name": "cid",
              "type": "string"
            },
            {
              "internalType": "string",
              "name": "orderType",
              "type": "string"
            },
            {
              "internalType": "uint256",
              "name": "triggerPrice",
              "type": "uint256"
            }
          ],
          "internalType": "struct IExchangeModule.SpotOrder",
          "name": "order",
          "type": "tuple"
        }
      ],
      "name": "createSpotMarketOrder",
      "outputs": [
        {
          "components": [
            {
              "internalType": "string",
              "name": "orderHash",
              "type": "string"
            },
            {
              "internalType": "string",
              "name": "cid",
              "type": "string"
            },
            {
              "internalType": "uint256",
              "name": "quantity",
              "type": "uint256"
            },
            {
              "internalType": "uint256",
              "name": "price",
              "type": "uint256"
            },
            {
              "internalType": "uint256",
              "name": "fee",
              "type": "uint256"
            }
          ],
          "internalType": "struct IExchangeModule.CreateSpotMarketOrderResponse",
          "name": "response",
          "type": "tuple"
        }
      ],
      "stateMutability": "nonpayable",
      "type": "function"
    },
    {
      "inputs": [
        {
          "internalType": "string",
          "name": "marketID",
          "type": "string"
        },
        {
          "internalType": "string",
          "name": "subaccountID",
          "type": "string"
        },
        {
          "internalType": "uint256",
          "name": "quantity",
          "type": "uint256"
        },
        {
          "internalType": "string",
          "name": "cid",
          "type": "string"
        }
      ],
      "name": "createSpotMarketSellOrder",
      "outputs": [
        {
          "components": [
            {
              "internalType": "string",
              "name": "orderHash",
              "type": "string"
            },
            {
              "internalType": "string",
              "name": "cid",
              "type": "string"
            },
            {
              "internalType": "uint256",
              "name": "quantity",
              "type": "uint256"
            },
            {
              "internalType": "uint256",
              "name": "price",
              "type": "uint256"
            },
            {
              "internalType": "uint256",
              "name": "fee",
              "type": "uint256"
            }
          ],
          "internalType": "struct IExchangeModule.CreateSpotMarketOrderResponse",
          "name": "response",
          "type": "tuple"
        }
      ],
      "stateMutability": "nonpayable",
      "type": "function"
    },
    {
      "inputs": [
        {
          "internalType": "string",
          "name": "marketID",
          "type": "string"
        },
        {
          "internalType": "string",
          "name": "subaccountID",
          "type": "string"
        },
        {
          "internalType": "uint256",
          "name": "price",
          "type": "uint256"
        },
        {
          "internalType": "uint256",
          "name": "quantity",
          "type": "uint256"
        },
        {
          "internalType": "string",
          "name": "cid",
          "type": "string"
        }
      ],
      "name": "createSpotSellOrder",
      "outputs": [
        {
          "components": [
            {
              "internalType": "string",
              "name": "orderHash",
              "type": "string"
            },
            {
              "internalType": "string",
              "name": "cid",
              "type": "string"
            }
          ],
          "internalType": "struct IExchangeModule.CreateSpotLimitOrderResponse",
          "name": "response",
          "type": "tuple"
        }
      ],
      "stateMutability": "nonpayable",
      "type": "function"
    },
    {
      "inputs": [
        {
          "internalType": "string",
          "name": "subaccountID",
          "type": "string"
        },
        {
          "internalType": "string",
          "name": "denom",
          "type": "string"
        },
        {
          "internalType": "uint256",
          "name": "amount",
          "type": "uint256"
        }
      ],
      "name": "deposit",
      "outputs": [
        {
          "internalType": "bool",
          "name": "",
          "type": "bool"
        }
      ],
      "stateMutability": "nonpayable",
      "type": "function"
    },
    {
      "inputs": [],
      "name": "emergencyWithdraw",
      "outputs": [],
      "stateMutability": "nonpayable",
      "type": "function"
    },
    {
      "inputs": [
        {
          "internalType": "uint32",
          "name": "nonce",
          "type": "uint32"
        }
      ],
      "name": "generateSubaccountID",
      "outputs": [
        {
          "internalType": "string",
          "name": "",
          "type": "string"
        }
      ],
      "stateMutability": "view",
      "type": "function"
    },
    {
      "inputs": [
        {
          "internalType": "uint32[]",
          "name": "nonces",
          "type": "uint32[]"
        }
      ],
      "name": "getAllSubaccountDeposits",
      "outputs": [
        {
          "components": [
            {
              "internalType": "string",
              "name": "denom",
              "type": "string"
            },
            {
              "internalType": "uint256",
              "name": "availableBalance",
              "type": "uint256"
            },
            {
              "internalType": "uint256",
              "name": "totalBalance",
              "type": "uint256"
            }
          ],
          "internalType": "struct IExchangeModule.SubaccountDepositData[][]",
          "name": "allDeposits",
          "type": "tuple[][]"
        }
      ],
      "stateMutability": "view",
      "type": "function"
    },
    {
      "inputs": [],
      "name": "getContractBalance",
      "outputs": [
        {
          "internalType": "uint256",
          "name": "",
          "type": "uint256"
        }
      ],
      "stateMutability": "view",
      "type": "function"
    },
    {
      "inputs": [],
      "name": "getDefaultSubaccountID",
      "outputs": [
        {
          "internalType": "string",
          "name": "",
          "type": "string"
        }
      ],
      "stateMutability": "view",
      "type": "function"
    },
    {
      "inputs": [
        {
          "internalType": "string",
          "name": "marketID",
          "type": "string"
        },
        {
          "internalType": "string",
          "name": "subaccountID",
          "type": "string"
        },
        {
          "internalType": "string[]",
          "name": "orderHashes",
          "type": "string[]"
        }
      ],
      "name": "getSpotOrders",
      "outputs": [
        {
          "components": [
            {
              "internalType": "uint256",
              "name": "price",
              "type": "uint256"
            },
            {
              "internalType": "uint256",
              "name": "quantity",
              "type": "uint256"
            },
            {
              "internalType": "uint256",
              "name": "fillable",
              "type": "uint256"
            },
            {
              "internalType": "bool",
              "name": "isBuy",
              "type": "bool"
            },
            {
              "internalType": "string",
              "name": "orderHash",
              "type": "string"
            },
            {
              "internalType": "string",
              "name": "cid",
              "type": "string"
            }
          ],
          "internalType": "struct IExchangeModule.TrimmedSpotLimitOrder[]",
          "name": "orders",
          "type": "tuple[]"
        }
      ],
      "stateMutability": "nonpayable",
      "type": "function"
    },
    {
      "inputs": [
        {
          "internalType": "string",
          "name": "subaccountID",
          "type": "string"
        },
        {
          "internalType": "string",
          "name": "denom",
          "type": "string"
        }
      ],
      "name": "getSubaccountDeposit",
      "outputs": [
        {
          "internalType": "uint256",
          "name": "availableBalance",
          "type": "uint256"
        },
        {
          "internalType": "uint256",
          "name": "totalBalance",
          "type": "uint256"
        }
      ],
      "stateMutability": "view",
      "type": "function"
    },
    {
      "inputs": [
        {
          "internalType": "string",
          "name": "subaccountID",
          "type": "string"
        }
      ],
      "name": "getSubaccountDeposits",
      "outputs": [
        {
          "components": [
            {
              "internalType": "string",
              "name": "denom",
              "type": "string"
            },
            {
              "internalType": "uint256",
              "name": "availableBalance",
              "type": "uint256"
            },
            {
              "internalType": "uint256",
              "name": "totalBalance",
              "type": "uint256"
            }
          ],
          "internalType": "struct IExchangeModule.SubaccountDepositData[]",
          "name": "deposits",
          "type": "tuple[]"
        }
      ],
      "stateMutability": "view",
      "type": "function"
    },
    {
      "inputs": [
        {
          "internalType": "uint32",
          "name": "nonce",
          "type": "uint32"
        }
      ],
      "name": "getSubaccountID",
      "outputs": [
        {
          "internalType": "string",
          "name": "",
          "type": "string"
        }
      ],
      "stateMutability": "view",
      "type": "function"
    },
    {
      "inputs": [],
      "name": "owner",
      "outputs": [
        {
          "internalType": "address",
          "name": "",
          "type": "address"
        }
      ],
      "stateMutability": "view",
      "type": "function"
    },
    {
      "inputs": [
        {
          "internalType": "address",
          "name": "trader",
          "type": "address"
        }
      ],
      "name": "revokeTrader",
      "outputs": [],
      "stateMutability": "nonpayable",
      "type": "function"
    },
    {
      "inputs": [
        {
          "internalType": "string",
          "name": "subaccountID",
          "type": "string"
        }
      ],
      "name": "subaccountPositions",
      "outputs": [
        {
          "components": [
            {
              "internalType": "string",
              "name": "subaccountID",
              "type": "string"
            },
            {
              "internalType": "string",
              "name": "marketID",
              "type": "string"
            },
            {
              "internalType": "bool",
              "name": "isLong",
              "type": "bool"
            },
            {
              "internalType": "uint256",
              "name": "quantity",
              "type": "uint256"
            },
            {
              "internalType": "uint256",
              "name": "entryPrice",
              "type": "uint256"
            },
            {
              "internalType": "uint256",
              "name": "margin",
              "type": "uint256"
            },
            {
              "internalType": "uint256",
              "name": "cumulativeFundingEntry",
              "type": "uint256"
            }
          ],
          "internalType": "struct IExchangeModule.DerivativePosition[]",
          "name": "positions",
          "type": "tuple[]"
        }
      ],
      "stateMutability": "view",
      "type": "function"
    },
    {
      "inputs": [
        {
          "internalType": "string",
          "name": "sourceSubaccountID",
          "type": "string"
        },
        {
          "internalType": "string",
          "name": "destinationSubaccountID",
          "type": "string"
        },
        {
          "internalType": "string",
          "name": "denom",
          "type": "string"
        },
        {
          "internalType": "uint256",
          "name": "amount",
          "type": "uint256"
        }
      ],
      "name": "transferBetweenSubaccounts",
      "outputs": [
        {
          "internalType": "bool",
          "name": "success",
          "type": "bool"
        }
      ],
      "stateMutability": "nonpayable",
      "type": "function"
    },
    {
      "inputs": [
        {
          "internalType": "string",
          "name": "sourceSubaccountID",
          "type": "string"
        },
        {
          "internalType": "string",
          "name": "destinationSubaccountID",
          "type": "string"
        },
        {
          "internalType": "string",
          "name": "denom",
          "type": "string"
        },
        {
          "internalType": "uint256",
          "name": "amount",
          "type": "uint256"
        }
      ],
      "name": "transferToExternalSubaccount",
      "outputs": [
        {
          "internalType": "bool",
          "name": "success",
          "type": "bool"
        }
      ],
      "stateMutability": "nonpayable",
      "type": "function"
    },
    {
      "inputs": [
        {
          "internalType": "string",
          "name": "subaccountID",
          "type": "string"
        },
        {
          "internalType": "string",
          "name": "denom",
          "type": "string"
        },
        {
          "internalType": "uint256",
          "name": "amount",
          "type": "uint256"
        }
      ],
      "name": "withdraw",
      "outputs": [
        {
          "internalType": "bool",
          "name": "",
          "type": "bool"
        }
      ],
      "stateMutability": "nonpayable",
      "type": "function"
    }
  ],
  "transactionHash": "0x585d23995d1a02b1ba5e429d5c60e53f17c737f6253b839c7930973fbd7be74f",
  "args": [],
  "numDeployments": 1,
  "solcInputHash": "85790bc856600e607f48e96caa5c39d3",
  "bytecode": "0x6080604052600080546001600160a01b031916606517905534801561002357600080fd5b50600280546001600160a01b031916339081179091556000908152600160208190526040909120805460ff191690911790556149bf806100646000396000f3fe608060405234801561001057600080fd5b50600436106101da5760003560e01c8063881e739c11610104578063c847ea92116100a2578063e09a190411610071578063e09a190414610472578063e545676114610492578063f4056d02146104a5578063f6b0d078146104b857600080fd5b8063c847ea921461041c578063cab0a9a11461042f578063d93d6a6814610457578063db2e21bc1461046a57600080fd5b80639bb15b3c116100de5780639bb15b3c146103c1578063b4ef8b4a146103e1578063ba73b818146103f4578063bd4dc6bf1461040757600080fd5b8063881e739c146103605780638da5cb5b146103735780638e39246d1461039e57600080fd5b8063517551171161017c57806367a51ffc1161014b57806367a51ffc146102ff5780636a418fcb1461031f5780636f9fb98a146103325780636fe5813a1461034057600080fd5b806351755117146102b157806352d18416146102c457806357b79a23146102d75780635fe90967146102ec57600080fd5b8063251bded7116101b8578063251bded71461024b5780632832462e1461025e57806336e538441461027e5780634b2187e21461029157600080fd5b806315113a77146101df5780631f970e1f14610208578063222ac05514610228575b600080fd5b6101f26101ed366004612797565b6104cb565b6040516101ff9190612880565b60405180910390f35b61021b610216366004612919565b61075d565b6040516101ff91906129bc565b61023b610236366004612a20565b610936565b60405190151581526020016101ff565b61023b610259366004612a93565b610a6c565b61027161026c366004612b35565b610bb1565b6040516101ff9190612bce565b61027161028c366004612797565b610da7565b6102a461029f366004612c14565b610fb7565b6040516101ff9190612c7d565b6102a46102bf366004612c90565b61115c565b61021b6102d2366004612919565b6112fa565b6102ea6102e5366004612ccb565b61147a565b005b6102716102fa366004612b35565b611500565b61031261030d366004612cf4565b6116d5565b6040516101ff9190612d30565b6102ea61032d366004612ccb565b6117eb565b6040514781526020016101ff565b61035361034e366004612797565b611865565b6040516101ff9190612e59565b61021b61036e366004612c90565b611992565b600254610386906001600160a01b031681565b6040516001600160a01b0390911681526020016101ff565b61023b6103ac366004612ccb565b60016020526000908152604090205460ff1681565b6103d46103cf366004612ebb565b611afe565b6040516101ff9190612ef0565b6102a46103ef366004612f9d565b611b7d565b61023b610402366004612a20565b611d36565b61040f611e60565b6040516101ff9190613049565b61040f61042a36600461305c565b611e71565b61044261043d366004613082565b611ee4565b604080519283526020830191909152016101ff565b61040f61046536600461305c565b611f68565b6102ea611f73565b610485610480366004612ebb565b611fd9565b6040516101ff91906130ed565b61023b6104a0366004613100565b61205e565b6102a46104b3366004612f9d565b6121e0565b61023b6104c6366004612a93565b612341565b6104ef60405180606001604052806060815260200160608152602001606081525090565b3360009081526001602052604090205460ff166105275760405162461bcd60e51b815260040161051e906131a2565b60405180910390fd5b600054604051632440e3e360e11b81526001600160a01b0390911690634881c7c69061055b9030908790879060040161331a565b6000604051808303816000875af192505050801561059b57506040513d6000823e601f3d908101601f19168201604052610598919081019061359d565b60015b61065f576105a7613655565b806308c379a0036105fd57506105bb613671565b806105c657506105ff565b806040516020016105d791906136fa565b60408051601f198184030181529082905262461bcd60e51b825261051e91600401613049565b505b60405162461bcd60e51b815260206004820152602f60248201527f556e6b6e6f776e206572726f7220647572696e6720626174636843726561746560448201526e53706f744c696d69744f726465727360881b606482015260840161051e565b60005b815151811015610753577feee1c10fc4d50b1727353574c6396814d05ab786305d97cde737b08b59b940d085858381811061069f5761069f61374a565b90506020028101906106b19190613760565b6106bb9080613780565b84518051859081106106cf576106cf61374a565b6020026020010151856020015185815181106106ed576106ed61374a565b60200260200101518989878181106107075761070761374a565b90506020028101906107199190613760565b6107279060c0810190613780565b604051610739969594939291906137c6565b60405180910390a18061074b8161382b565b915050610662565b5090505b92915050565b61078f6040518060a0016040528060608152602001606081526020016000815260200160008152602001600081525090565b3360009081526001602052604090205460ff166107be5760405162461bcd60e51b815260040161051e906131a2565b604080516101206020601f8b01819004028201810190925261010081018981526000928291908c908c9081908501838280828437600092019190915250505090825250604080516020601f8b0181900481028201810190925289815291810191908a908a90819084018382808284376000920191909152505050908252506020016108483061247d565b81526020016000815260200186815260200185858080601f016020809104026020016040519081016040528093929190818152602001838380828437600092018290525093855250506040805180820182526004808252631cd95b1b60e21b6020838101919091528601919091529381019290925250516322079ce760e21b8152919250309163881e739c916108e091859101613844565b6000604051808303816000875af11580156108ff573d6000803e3d6000fd5b505050506040513d6000823e601f3d908101601f191682016040526109279190810190613904565b9150505b979650505050505050565b3360009081526001602052604081205460ff166109655760405162461bcd60e51b815260040161051e906131a2565b60005460405163e441dec960e01b81526001600160a01b039091169063e441dec99061099f9030908a908a908a908a908a906004016139b9565b6020604051808303816000875af19250505080156109da575060408051601f3d908101601f191682019092526109d791810190613a15565b60015b610a60576109e6613655565b806308c379a003610a1657506109fa613671565b80610a055750610a18565b806040516020016105d79190613a30565b505b60405162461bcd60e51b815260206004820152601c60248201527f556e6b6e6f776e206572726f7220647572696e67206465706f73697400000000604482015260640161051e565b90505b95945050505050565b3360009081526001602052604081205460ff16610a9b5760405162461bcd60e51b815260040161051e906131a2565b6000546040516342eba2ed60e01b81526001600160a01b03909116906342eba2ed90610ad99030908c908c908c908c908c908c908c90600401613a67565b6020604051808303816000875af1925050508015610b14575060408051601f3d908101601f19168201909252610b1191810190613a15565b60015b610baa57610b20613655565b806308c379a003610b505750610b34613671565b80610b3f5750610b52565b806040516020016105d79190613aca565b505b60405162461bcd60e51b815260206004820152602760248201527f556e6b6e6f776e206572726f7220647572696e67207375626163636f756e74546044820152663930b739b332b960c91b606482015260840161051e565b905061092b565b3360009081526001602052604090205460609060ff16610be35760405162461bcd60e51b815260040161051e906131a2565b858214610c2d5760405162461bcd60e51b8152602060048201526018602482015277082e4e4c2f240d8cadccee8d0e640daeae6e840dac2e8c6d60431b604482015260640161051e565b6000866001600160401b03811115610c4757610c4761339f565b604051908082528060200260200182016040528015610c70578160200160208202803683370190505b50905060005b87811015610d9b576000610caa8a8a84818110610c9557610c9561374a565b905060200201602081019061042a919061305c565b6000549091506001600160a01b031663eb28c20530838b8b8b8b89818110610cd457610cd461374a565b905060200201356040518663ffffffff1660e01b8152600401610cfb959493929190613b0f565b6020604051808303816000875af1925050508015610d36575060408051601f3d908101601f19168201909252610d3391810190613a15565b60015b610d63576000838381518110610d4e57610d4e61374a565b91151560209283029190910190910152610d88565b80848481518110610d7657610d7661374a565b91151560209283029190910190910152505b5080610d938161382b565b915050610c76565b50979650505050505050565b3360009081526001602052604090205460609060ff16610dd95760405162461bcd60e51b815260040161051e906131a2565b60005460405163438051ab60e01b81526001600160a01b039091169063438051ab90610e0d90309087908790600401613b59565b6000604051808303816000875af1925050508015610e4d57506040513d6000823e601f3d908101601f19168201604052610e4a9190810190613c78565b60015b610ee657610e59613655565b806308c379a003610e895750610e6d613671565b80610e785750610e8b565b806040516020016105d79190613d0f565b505b60405162461bcd60e51b815260206004820152602a60248201527f556e6b6e6f776e206572726f7220647572696e6720626174636843616e63656c60448201526953706f744f726465727360b01b606482015260840161051e565b60005b83811015610753577f4cdba3b377ebcc743722fa04c7ac171a2f46ab021f0b2df17c5bcc8ea87441a6858583818110610f2457610f2461374a565b9050602002810190610f369190613d54565b610f409080613780565b878785818110610f5257610f5261374a565b9050602002810190610f649190613d54565b610f72906040810190613780565b868681518110610f8457610f8461374a565b6020026020010151604051610f9d959493929190613d6a565b60405180910390a180610faf8161382b565b915050610ee9565b60408051808201909152606080825260208201523360009081526001602052604090205460ff16610ffa5760405162461bcd60e51b815260040161051e906131a2565b6000546040516320c6983760e01b81526001600160a01b03909116906320c698379061102c9030908690600401613da6565b6000604051808303816000875af192505050801561106c57506040513d6000823e601f3d908101601f191682016040526110699190810190613f41565b60015b61110a57611078613655565b806308c379a0036110a8575061108c613671565b8061109757506110aa565b806040516020016105d79190613f75565b505b60405162461bcd60e51b815260206004820152602f60248201527f556e6b6e6f776e206572726f7220647572696e6720637265617465446572697660448201526e30ba34bb32a634b6b4ba27b93232b960891b606482015260840161051e565b7f02a114900df0f21c0114cf3cdd4d13af4f959f3d1e2b4e8cfb5471de725417486111358480613780565b8351602085015160405161114c9493929190613fb8565b60405180910390a190505b919050565b60408051808201909152606080825260208201523360009081526001602052604090205460ff1661119f5760405162461bcd60e51b815260040161051e906131a2565b600054604051637b21242f60e11b81526001600160a01b039091169063f642485e906111d19030908690600401613ff2565b6000604051808303816000875af192505050801561121157506040513d6000823e601f3d908101601f1916820160405261120e9190810190613f41565b60015b6112a95761121d613655565b806308c379a00361124d5750611231613671565b8061123c575061124f565b806040516020016105d79190614016565b505b60405162461bcd60e51b815260206004820152602960248201527f556e6b6e6f776e206572726f7220647572696e672063726561746553706f744c60448201526834b6b4ba27b93232b960b91b606482015260840161051e565b7feee1c10fc4d50b1727353574c6396814d05ab786305d97cde737b08b59b940d06112d48480613780565b835160208501516112e860c0890189613780565b60405161114c969594939291906137c6565b61132c6040518060a0016040528060608152602001606081526020016000815260200160008152602001600081525090565b3360009081526001602052604090205460ff1661135b5760405162461bcd60e51b815260040161051e906131a2565b604080516101206020601f8b01819004028201810190925261010081018981526000928291908c908c9081908501838280828437600092019190915250505090825250604080516020601f8b0181900481028201810190925289815291810191908a908a90819084018382808284376000920191909152505050908252506020016113e53061247d565b81526020016000815260200186815260200185858080601f01602080910402602001604051908101604052809392919081815260200183838082843760009201829052509385525050604080518082018252600381526262757960e81b6020828101919091528501529283019190915250516322079ce760e21b8152909150309063881e739c906108e0908490600401613844565b6002546001600160a01b031633146114a45760405162461bcd60e51b815260040161051e9061405b565b6001600160a01b038116600081815260016020818152604092839020805460ff191690921790915590519182527f526af00f9bc92d53f2d0b4c603a1305395a04f7fb6a0a7962867d8d23046754791015b60405180910390a150565b3360009081526001602052604090205460609060ff166115325760405162461bcd60e51b815260040161051e906131a2565b85821461157c5760405162461bcd60e51b8152602060048201526018602482015277082e4e4c2f240d8cadccee8d0e640daeae6e840dac2e8c6d60431b604482015260640161051e565b6000866001600160401b038111156115965761159661339f565b6040519080825280602002602001820160405280156115bf578160200160208202803683370190505b50905060005b87811015610d9b5760006115e48a8a84818110610c9557610c9561374a565b6000549091506001600160a01b031663e441dec930838b8b8b8b8981811061160e5761160e61374a565b905060200201356040518663ffffffff1660e01b8152600401611635959493929190613b0f565b6020604051808303816000875af1925050508015611670575060408051601f3d908101601f1916820190925261166d91810190613a15565b60015b61169d5760008383815181106116885761168861374a565b911515602092830291909101909101526116c2565b808484815181106116b0576116b061374a565b91151560209283029190910190910152505b50806116cd8161382b565b9150506115c5565b60606000604051806060016040528089898080601f016020809104026020016040519081016040528093929190818152602001838380828437600092019190915250505090825250604080516020601f8a0181900481028201810190925288815291810191908990899081908401838280828437600092019190915250505090825250602001611765858761409c565b90526000546040516357d90abb60e01b81529192506001600160a01b0316906357d90abb90611798908490600401614156565b6000604051808303816000875af11580156117b7573d6000803e3d6000fd5b505050506040513d6000823e601f3d908101601f191682016040526117df9190810190614190565b98975050505050505050565b6002546001600160a01b031633146118155760405162461bcd60e51b815260040161051e9061405b565b6001600160a01b038116600081815260016020908152604091829020805460ff1916905590519182527e67ea30f38cf0a7ea30caa5fd0d9d88a6dbc02501c6d124a12a556b90c086b991016114f5565b6060816001600160401b0381111561187f5761187f61339f565b6040519080825280602002602001820160405280156118b257816020015b606081526020019060019003908161189d5790505b50905060005b8281101561198b5760006118d7858584818110610c9557610c9561374a565b6000549091506001600160a01b03166312433f4b826118f53061247d565b60006040518463ffffffff1660e01b8152600401611915939291906142d9565b600060405180830381865afa158015611932573d6000803e3d6000fd5b505050506040513d6000823e601f3d908101601f1916820160405261195a9190810190614315565b83838151811061196c5761196c61374a565b60200260200101819052505080806119839061382b565b9150506118b8565b5092915050565b6119c46040518060a0016040528060608152602001606081526020016000815260200160008152602001600081525090565b3360009081526001602052604090205460ff166119f35760405162461bcd60e51b815260040161051e906131a2565b600054604051630a74f43960e21b81526001600160a01b03909116906329d3d0e490611a259030908690600401613ff2565b6000604051808303816000875af1925050508015611a6557506040513d6000823e601f3d908101601f19168201604052611a629190810190613904565b60015b6112a957611a71613655565b806308c379a003611aa15750611a85613671565b80611a905750611aa3565b806040516020016105d79190614418565b505b60405162461bcd60e51b815260206004820152602a60248201527f556e6b6e6f776e206572726f7220647572696e672063726561746553706f744d60448201526930b935b2ba27b93232b960b11b606482015260840161051e565b6000546040516326ec56cf60e21b81526060916001600160a01b031690639bb15b3c90611b319086908690600401614450565b600060405180830381865afa158015611b4e573d6000803e3d6000fd5b505050506040513d6000823e601f3d908101601f19168201604052611b769190810190614464565b9392505050565b60408051808201909152606080825260208201523360009081526001602052604090205460ff16611bc05760405162461bcd60e51b815260040161051e906131a2565b604080516101206020601f8c01819004028201810190925261010081018a81526000928291908d908d9081908501838280828437600092019190915250505090825250604080516020601f8c018190048102820181019092528a815291810191908b908b9081908401838280828437600092019190915250505090825250602001611c4a3061247d565b815260200187815260200186815260200185858080601f016020809104026020016040519081016040528093929190818152602001838380828437600092018290525093855250506040805180820182526004808252631cd95b1b60e21b602083810191909152860191909152938101929092525051635175511760e01b81529192503091635175511791611ce191859101613844565b6000604051808303816000875af1158015611d00573d6000803e3d6000fd5b505050506040513d6000823e601f3d908101601f19168201604052611d289190810190613f41565b9a9950505050505050505050565b3360009081526001602052604081205460ff16611d655760405162461bcd60e51b815260040161051e906131a2565b60005460405163eb28c20560e01b81526001600160a01b039091169063eb28c20590611d9f9030908a908a908a908a908a906004016139b9565b6020604051808303816000875af1925050508015611dda575060408051601f3d908101601f19168201909252611dd791810190613a15565b60015b610a6057611de6613655565b806308c379a003611e165750611dfa613671565b80611e055750611e18565b806040516020016105d791906145ad565b505b60405162461bcd60e51b815260206004820152601d60248201527f556e6b6e6f776e206572726f7220647572696e67207769746864726177000000604482015260640161051e565b6060611e6c6000611e71565b905090565b60606000611e7e836125bd565b90505b601881511015611eb25780604051602001611e9c91906145e5565b6040516020818303038152906040529050611e81565b611ebb3061247d565b81604051602001611ecd92919061460e565b604051602081830303815290604052915050919050565b60008054604051639e96621f60e01b815282916001600160a01b031690639e96621f90611f1b90899089908990899060040161463d565b6040805180830381865afa158015611f37573d6000803e3d6000fd5b505050506040513d601f19601f82011682018060405250810190611f5b9190614664565b9150915094509492505050565b606061075782611e71565b6002546001600160a01b03163314611f9d5760405162461bcd60e51b815260040161051e9061405b565b6002546040516001600160a01b03909116904780156108fc02916000818181858888f19350505050158015611fd6573d6000803e3d6000fd5b50565b6000546060906001600160a01b03166312433f4b8484611ff83061247d565b60006040518563ffffffff1660e01b81526004016120199493929190614688565b600060405180830381865afa158015612036573d6000803e3d6000fd5b505050506040513d6000823e601f3d908101601f19168201604052611b769190810190614315565b3360009081526001602052604081205460ff1661208d5760405162461bcd60e51b815260040161051e906131a2565b6000546040516312dfb5c960e11b81526001600160a01b03909116906325bf6b92906120cd9030908d908d908d908d908d908d908d908d906004016146c6565b6020604051808303816000875af1925050508015612108575060408051601f3d908101601f1916820190925261210591810190613a15565b60015b61219a57612114613655565b806308c379a0036121445750612128613671565b806121335750612146565b806040516020016105d79190614738565b505b60405162461bcd60e51b8152602060048201526024808201527f556e6b6e6f776e206572726f7220647572696e672063616e63656c53706f744f604482015263393232b960e11b606482015260840161051e565b7f4cdba3b377ebcc743722fa04c7ac171a2f46ab021f0b2df17c5bcc8ea87441a68a8a8888856040516121d1959493929190613d6a565b60405180910390a190506117df565b60408051808201909152606080825260208201523360009081526001602052604090205460ff166122235760405162461bcd60e51b815260040161051e906131a2565b604080516101206020601f8c01819004028201810190925261010081018a81526000928291908d908d9081908501838280828437600092019190915250505090825250604080516020601f8c018190048102820181019092528a815291810191908b908b90819084018382808284376000920191909152505050908252506020016122ad3061247d565b815260200187815260200186815260200185858080601f01602080910402602001604051908101604052809392919081815260200183838082843760009201829052509385525050604080518082018252600381526262757960e81b602082810191909152850152928301919091525051635175511760e01b81529091503090635175511790611ce1908490600401613844565b3360009081526001602052604081205460ff166123705760405162461bcd60e51b815260040161051e906131a2565b60005460405163600983e960e11b81526001600160a01b039091169063c01307d2906123ae9030908c908c908c908c908c908c908c90600401613a67565b6020604051808303816000875af19250505080156123e9575060408051601f3d908101601f191682019092526123e691810190613a15565b60015b610baa576123f5613655565b806308c379a0036124255750612409613671565b806124145750612427565b806040516020016105d7919061477d565b505b60405162461bcd60e51b815260206004820152602560248201527f556e6b6e6f776e206572726f7220647572696e672065787465726e616c5472616044820152643739b332b960d91b606482015260840161051e565b60408051602880825260608281019093526000919060208201818036833701905050905060005b601481101561198b5760006124ba8260136147c2565b6124c59060086147d5565b6124d09060026148d0565b6124e3906001600160a01b0387166148f2565b60f81b9050600060108260f81c6124fa9190614906565b60f81b905060008160f81c60106125119190614928565b8360f81c61251f9190614944565b60f81b905061252d82612716565b856125398660026147d5565b815181106125495761254961374a565b60200101906001600160f81b031916908160001a90535061256981612716565b856125758660026147d5565b61258090600161495d565b815181106125905761259061374a565b60200101906001600160f81b031916908160001a90535050505080806125b59061382b565b9150506124a4565b60608163ffffffff166000036125ea5750506040805180820190915260018152600360fc1b602082015290565b63ffffffff821660005b811561261a57806126048161382b565b915061261390506010836148f2565b91506125f4565b6000816001600160401b038111156126345761263461339f565b6040519080825280601f01601f19166020018201604052801561265e576020820181803683370190505b5090505b63ffffffff85161561270e576126796001836147c2565b9150612689600f86166030614970565b60f81b81838151811061269e5761269e61374a565b60200101906001600160f81b031916908160001a9053506009600f861611156126fc576126cf600f86166057614970565b60f81b8183815181106126e4576126e461374a565b60200101906001600160f81b031916908160001a9053505b60048563ffffffff16901c9450612662565b949350505050565b6000600a60f883901c101561273d5761273460f883901c6030614970565b60f81b92915050565b61273460f883901c6057614970565b60008083601f84011261275e57600080fd5b5081356001600160401b0381111561277557600080fd5b6020830191508360208260051b850101111561279057600080fd5b9250929050565b600080602083850312156127aa57600080fd5b82356001600160401b038111156127c057600080fd5b6127cc8582860161274c565b90969095509350505050565b60005b838110156127f35781810151838201526020016127db565b50506000910152565b600081518084526128148160208601602086016127d8565b601f01601f19169290920160200192915050565b600082825180855260208086019550808260051b84010181860160005b8481101561287357601f198684030189526128618383516127fc565b98840198925090830190600101612845565b5090979650505050505050565b60208152600082516060602084015261289c6080840182612828565b90506020840151601f19808584030160408601526128ba8383612828565b9250604086015191508085840301606086015250610a638282612828565b60008083601f8401126128ea57600080fd5b5081356001600160401b0381111561290157600080fd5b60208301915083602082850101111561279057600080fd5b60008060008060008060006080888a03121561293457600080fd5b87356001600160401b038082111561294b57600080fd5b6129578b838c016128d8565b909950975060208a013591508082111561297057600080fd5b61297c8b838c016128d8565b909750955060408a0135945060608a013591508082111561299c57600080fd5b506129a98a828b016128d8565b989b979a50959850939692959293505050565b602081526000825160a060208401526129d860c08401826127fc565b90506020840151601f198483030160408501526129f582826127fc565b9150506040840151606084015260608401516080840152608084015160a08401528091505092915050565b600080600080600060608688031215612a3857600080fd5b85356001600160401b0380821115612a4f57600080fd5b612a5b89838a016128d8565b90975095506020880135915080821115612a7457600080fd5b50612a81888289016128d8565b96999598509660400135949350505050565b60008060008060008060006080888a031215612aae57600080fd5b87356001600160401b0380821115612ac557600080fd5b612ad18b838c016128d8565b909950975060208a0135915080821115612aea57600080fd5b612af68b838c016128d8565b909750955060408a0135915080821115612b0f57600080fd5b50612b1c8a828b016128d8565b989b979a50959894979596606090950135949350505050565b60008060008060008060608789031215612b4e57600080fd5b86356001600160401b0380821115612b6557600080fd5b612b718a838b0161274c565b90985096506020890135915080821115612b8a57600080fd5b612b968a838b016128d8565b90965094506040890135915080821115612baf57600080fd5b50612bbc89828a0161274c565b979a9699509497509295939492505050565b6020808252825182820181905260009190848201906040850190845b81811015612c08578351151583529284019291840191600101612bea565b50909695505050505050565b600060208284031215612c2657600080fd5b81356001600160401b03811115612c3c57600080fd5b82016101208185031215611b7657600080fd5b6000815160408452612c6460408501826127fc565b905060208301518482036020860152610a6382826127fc565b602081526000611b766020830184612c4f565b600060208284031215612ca257600080fd5b81356001600160401b03811115612cb857600080fd5b82016101008185031215611b7657600080fd5b600060208284031215612cdd57600080fd5b81356001600160a01b0381168114611b7657600080fd5b60008060008060008060608789031215612d0d57600080fd5b86356001600160401b0380821115612d2457600080fd5b612b718a838b016128d8565b60006020808301818452808551808352604092508286019150828160051b87010184880160005b83811015612dd657603f19898403018552815160c08151855288820151898601528782015188860152606080830151151581870152506080808301518282880152612da4838801826127fc565b9250505060a08083015192508582038187015250612dc281836127fc565b968901969450505090860190600101612d57565b509098975050505050505050565b600081518084526020808501808196508360051b8101915082860160005b85811015612e4c578284038952815160608151818752612e24828801826127fc565b83890151888a0152604093840151939097019290925250509784019790840190600101612e02565b5091979650505050505050565b6000602080830181845280855180835260408601915060408160051b870101925083870160005b82811015612eae57603f19888603018452612e9c858351612de4565b94509285019290850190600101612e80565b5092979650505050505050565b60008060208385031215612ece57600080fd5b82356001600160401b03811115612ee457600080fd5b6127cc858286016128d8565b60006020808301818452808551808352604092508286019150828160051b87010184880160005b83811015612dd657603f19898403018552815160e08151818652612f3d828701826127fc565b915050888201518582038a870152612f5582826127fc565b838a01511515878b0152606080850151908801526080808501519088015260a0808501519088015260c093840151939096019290925250509386019390860190600101612f17565b60008060008060008060008060a0898b031215612fb957600080fd5b88356001600160401b0380821115612fd057600080fd5b612fdc8c838d016128d8565b909a50985060208b0135915080821115612ff557600080fd5b6130018c838d016128d8565b909850965060408b0135955060608b0135945060808b013591508082111561302857600080fd5b506130358b828c016128d8565b999c989b5096995094979396929594505050565b602081526000611b7660208301846127fc565b60006020828403121561306e57600080fd5b813563ffffffff81168114611b7657600080fd5b6000806000806040858703121561309857600080fd5b84356001600160401b03808211156130af57600080fd5b6130bb888389016128d8565b909650945060208701359150808211156130d457600080fd5b506130e1878288016128d8565b95989497509550505050565b602081526000611b766020830184612de4565b6000806000806000806000806080898b03121561311c57600080fd5b88356001600160401b038082111561313357600080fd5b61313f8c838d016128d8565b909a50985060208b013591508082111561315857600080fd5b6131648c838d016128d8565b909850965060408b013591508082111561317d57600080fd5b6131898c838d016128d8565b909650945060608b013591508082111561302857600080fd5b6020808252601590820152742737ba1030baba3437b934bd32b2103a3930b232b960591b604082015260600190565b6000808335601e198436030181126131e857600080fd5b83016020810192503590506001600160401b0381111561320757600080fd5b80360382131561279057600080fd5b81835281816020850137506000828201602090810191909152601f909101601f19169091010190565b600061010061324e83846131d1565b82865261325e8387018284613216565b9250505061326f60208401846131d1565b8583036020870152613282838284613216565b9250505061329360408401846131d1565b85830360408701526132a6838284613216565b9250505060608301356060850152608083013560808501526132cb60a08401846131d1565b85830360a08701526132de838284613216565b925050506132ef60c08401846131d1565b85830360c0870152613302838284613216565b9250505060e083013560e08501528091505092915050565b6001600160a01b0384168152604060208083018290529082018390526000906060600585901b84018101919084018684805b8881101561339057878603605f190184528235368b900360fe19018112613371578283fd5b61337d878c830161323f565b965050928401929184019160010161334c565b50939998505050505050505050565b634e487b7160e01b600052604160045260246000fd5b606081018181106001600160401b03821117156133d4576133d461339f565b60405250565b60a081018181106001600160401b03821117156133d4576133d461339f565b601f8201601f191681016001600160401b038111828210171561341e5761341e61339f565b6040525050565b60405160c081016001600160401b03811182821017156134475761344761339f565b60405290565b60405160e081016001600160401b03811182821017156134475761344761339f565b60006001600160401b038211156134885761348861339f565b5060051b60200190565b60006001600160401b038211156134ab576134ab61339f565b50601f01601f191660200190565b600082601f8301126134ca57600080fd5b81516134d581613492565b6040516134e282826133f9565b8281528560208487010111156134f757600080fd5b610a638360208301602088016127d8565b600082601f83011261351957600080fd5b815160206135268261346f565b60405161353382826133f9565b83815260059390931b850182019282810191508684111561355357600080fd5b8286015b848110156135925780516001600160401b038111156135765760008081fd5b6135848986838b01016134b9565b845250918301918301613557565b509695505050505050565b6000602082840312156135af57600080fd5b81516001600160401b03808211156135c657600080fd5b90830190606082860312156135da57600080fd5b6040516135e6816133b5565b8251828111156135f557600080fd5b61360187828601613508565b82525060208301518281111561361657600080fd5b61362287828601613508565b60208301525060408301518281111561363a57600080fd5b61364687828601613508565b60408301525095945050505050565b600060033d111561366e5760046000803e5060005160e01c5b90565b600060443d101561367f5790565b6040516003193d81016004833e81513d6001600160401b0381602484011181841117156136ae57505050505090565b82850191508151818111156136c65750505050505090565b843d87010160208285010111156136e05750505050505090565b6136ef602082860101876133f9565b509095945050505050565b7f426174636843726561746553706f744c696d69744f7264657273206572726f7281526101d160f51b60208201526000825161373d8160228501602087016127d8565b9190910160220192915050565b634e487b7160e01b600052603260045260246000fd5b6000823560fe1983360301811261377657600080fd5b9190910192915050565b6000808335601e1984360301811261379757600080fd5b8301803591506001600160401b038211156137b157600080fd5b60200191503681900382131561279057600080fd5b6080815260006137da60808301888a613216565b82810360208401526137ec81886127fc565b9050828103604084015261380081876127fc565b90508281036060840152610927818587613216565b634e487b7160e01b600052601160045260246000fd5b60006001820161383d5761383d613815565b5060010190565b60208152600082516101008060208501526138636101208501836127fc565b91506020850151601f198086850301604087015261388184836127fc565b9350604087015191508086850301606087015261389e84836127fc565b935060608701516080870152608087015160a087015260a08701519150808685030160c08701526138cf84836127fc565b935060c08701519150808685030160e0870152506138ed83826127fc565b92505060e085015181850152508091505092915050565b60006020828403121561391657600080fd5b81516001600160401b038082111561392d57600080fd5b9083019060a0828603121561394157600080fd5b60405161394d816133da565b82518281111561395c57600080fd5b613968878286016134b9565b82525060208301518281111561397d57600080fd5b613989878286016134b9565b60208301525060408301516040820152606083015160608201526080830151608082015280935050505092915050565b6001600160a01b03871681526080602082018190526000906139de9083018789613216565b82810360408401526139f1818688613216565b915050826060830152979650505050505050565b8051801515811461115757600080fd5b600060208284031215613a2757600080fd5b611b7682613a05565b6e02232b837b9b4ba1032b93937b91d1608d1b815260008251613a5a81600f8501602087016127d8565b91909101600f0192915050565b6001600160a01b038916815260a060208201819052600090613a8c908301898b613216565b8281036040840152613a9f81888a613216565b90508281036060840152613ab4818688613216565b9150508260808301529998505050505050505050565b7f5375626163636f756e745472616e73666572206572726f723a20000000000000815260008251613b0281601a8501602087016127d8565b91909101601a0192915050565b6001600160a01b0386168152608060208201819052600090613b33908301876127fc565b8281036040840152613b46818688613216565b9150508260608301529695505050505050565b6001600160a01b03841681526040602080830182905282820184905260009190606090818501600587901b8601830188865b89811015613c6857888303605f190184528135368c9003609e19018112613bb157600080fd5b8b0160a0613bbf82806131d1565b828752613bcf8388018284613216565b92505050613bdf878301836131d1565b86830389880152613bf1838284613216565b92505050613c01898301836131d1565b8683038b880152613c13838284613216565b92505050878201358060030b808214613c2b57600080fd5b868a0152506080613c3e838201846131d1565b935086830382880152613c52838583613216565b9789019796505050928601925050600101613b8b565b50909a9950505050505050505050565b60006020808385031215613c8b57600080fd5b82516001600160401b03811115613ca157600080fd5b8301601f81018513613cb257600080fd5b8051613cbd8161346f565b604051613cca82826133f9565b82815260059290921b8301840191848101915087831115613cea57600080fd5b928401925b8284101561092b57613d0084613a05565b82529284019290840190613cef565b7f426174636843616e63656c53706f744f7264657273206572726f723a20000000815260008251613d4781601d8501602087016127d8565b91909101601d0192915050565b60008235609e1983360301811261377657600080fd5b606081526000613d7e606083018789613216565b8281036020840152613d91818688613216565b91505082151560408301529695505050505050565b6001600160a01b0383168152604060208201526000613dc583806131d1565b610120806040860152613ddd61016086018385613216565b9250613dec60208701876131d1565b9250603f1980878603016060880152613e06858584613216565b9450613e1560408901896131d1565b9450915080878603016080880152613e2e858584613216565b9450606088013560a0880152608088013560c0880152613e5160a08901896131d1565b94509150808786030160e0880152613e6a858584613216565b9450613e7960c08901896131d1565b94509150610100818887030181890152613e94868685613216565b60e08a01359489019490945290970135610140909601959095529695505050505050565b600060408284031215613eca57600080fd5b604051604081016001600160401b038282108183111715613eed57613eed61339f565b816040528293508451915080821115613f0557600080fd5b613f11868387016134b9565b83526020850151915080821115613f2757600080fd5b50613f34858286016134b9565b6020830152505092915050565b600060208284031215613f5357600080fd5b81516001600160401b03811115613f6957600080fd5b61270e84828501613eb8565b7f437265617465446572697661746976654c696d69744f72646572206572726f7281526101d160f51b60208201526000825161373d8160228501602087016127d8565b606081526000613fcc606083018688613216565b8281036020840152613fde81866127fc565b9050828103604084015261092b81856127fc565b6001600160a01b038316815260406020820181905260009061270e9083018461323f565b7f43726561746553706f744c696d69744f72646572206572726f723a200000000081526000825161404e81601c8501602087016127d8565b91909101601c0192915050565b60208082526021908201527f4f6e6c79206f776e65722063616e2063616c6c20746869732066756e6374696f6040820152603760f91b606082015260800190565b60006140a78361346f565b604080516140b583826133f9565b85815260208082019350600587901b8601368111156140d357600080fd5b865b81811015612e4c5780356001600160401b038111156140f45760008081fd5b880136601f8201126141065760008081fd5b803561411181613492565b875161411d82826133f9565b828152368784860101111561413457600091508182fd5b82878501888301376000928101870192909252508752509482019482016140d5565b60208152600082516060602084015261417260808401826127fc565b90506020840151601f19808584030160408601526128ba83836127fc565b600060208083850312156141a357600080fd5b82516001600160401b03808211156141ba57600080fd5b818501915085601f8301126141ce57600080fd5b81516141d98161346f565b6040516141e682826133f9565b82815260059290921b840185019185810191508883111561420657600080fd5b8585015b838110156142cc5780518581111561422157600080fd5b860160c0818c03601f190112156142385760008081fd5b614240613425565b88820151815260408201518982015260608083015160408301526080614267818501613a05565b8284015260a0915081840151898111156142815760008081fd5b61428f8f8d838801016134b9565b82850152505060c0830151888111156142a85760008081fd5b6142b68e8c838701016134b9565b918301919091525084525091860191860161420a565b5098975050505050505050565b6060815260006142ec60608301866127fc565b82810360208401526142fe81866127fc565b91505063ffffffff83166040830152949350505050565b6000602080838503121561432857600080fd5b82516001600160401b038082111561433f57600080fd5b818501915085601f83011261435357600080fd5b815161435e8161346f565b6040805161436c83826133f9565b83815260059390931b850186019286810192508984111561438c57600080fd5b8686015b8481101561440a578051868111156143a85760008081fd5b87016060818d03601f19018113156143c05760008081fd5b84516143cb816133b5565b8a830151898111156143dd5760008081fd5b6143eb8f8d838701016134b9565b825250828601518b820152910151848201528452928701928701614390565b509998505050505050505050565b7f43726561746553706f744d61726b65744f72646572206572726f723a20000000815260008251613d4781601d8501602087016127d8565b60208152600061270e602083018486613216565b6000602080838503121561447757600080fd5b82516001600160401b038082111561448e57600080fd5b818501915085601f8301126144a257600080fd5b81516144ad8161346f565b604080516144bb83826133f9565b83815260059390931b85018601928681019250898411156144db57600080fd5b8686015b8481101561440a578051868111156144f75760008081fd5b870160e0818d03601f190181131561450f5760008081fd5b61451761344d565b8a830151898111156145295760008081fd5b6145378f8d838701016134b9565b825250858301518981111561454c5760008081fd5b61455a8f8d838701016134b9565b8c83015250606061456c818501613a05565b828801526080848101519183019190915260a0808501519183019190915260c0808501519183019190915291909201519082015284529287019287016144df565b6f02bb4ba34323930bb9032b93937b91d160851b8152600082516145d88160108501602087016127d8565b9190910160100192915050565b600360fc1b8152600082516146018160018501602087016127d8565b9190910160010192915050565b600083516146208184602088016127d8565b8351908301906146348183602088016127d8565b01949350505050565b604081526000614651604083018688613216565b828103602084015261092b818587613216565b6000806040838503121561467757600080fd5b505080516020909101519092909150565b60608152600061469c606083018688613216565b82810360208401526146ae81866127fc565b91505063ffffffff8316604083015295945050505050565b6001600160a01b038a16815260a0602082018190526000906146eb9083018a8c613216565b82810360408401526146fe81898b613216565b90508281036060840152614713818789613216565b90508281036080840152614728818587613216565b9c9b505050505050505050505050565b7f43616e63656c53706f744f72646572206572726f723a200000000000000000008152600082516147708160178501602087016127d8565b9190910160170192915050565b7f45787465726e616c5472616e73666572206572726f723a2000000000000000008152600082516147b58160188501602087016127d8565b9190910160180192915050565b8181038181111561075757610757613815565b808202811582820484141761075757610757613815565b600181815b8085111561482757816000190482111561480d5761480d613815565b8085161561481a57918102915b93841c93908002906147f1565b509250929050565b60008261483e57506001610757565b8161484b57506000610757565b8160018114614861576002811461486b57614887565b6001915050610757565b60ff84111561487c5761487c613815565b50506001821b610757565b5060208310610133831016604e8410600b84101617156148aa575081810a610757565b6148b483836147ec565b80600019048211156148c8576148c8613815565b029392505050565b6000611b76838361482f565b634e487b7160e01b600052601260045260246000fd5b600082614901576149016148dc565b500490565b600060ff831680614919576149196148dc565b8060ff84160491505092915050565b60ff818116838216029081169081811461198b5761198b613815565b60ff828116828216039081111561075757610757613815565b8082018082111561075757610757613815565b60ff81811683821601908111156107575761075761381556fea2646970667358221220ebbd79a996473200fa490ba631e48d7bb535539d3cc27174b092f50d3ff063c164736f6c63430008140033",
  "devdoc": {
    "kind": "dev",
    "methods": {},
    "version": 1
  },
  "userdoc": {
    "kind": "user",
    "methods": {},
    "version": 1
  },
  "storageLayout": {
    "storage": [
      {
        "astId": 483,
        "contract": "contracts/ExchangeEx_Standalone.sol:ExchangeEx",
        "label": "exchange",
        "offset": 0,
        "slot": "0",
        "type": "t_contract(IExchangeModule)474"
      },
      {
        "astId": 487,
        "contract": "contracts/ExchangeEx_Standalone.sol:ExchangeEx",
        "label": "authorizedTraders",
        "offset": 0,
        "slot": "1",
        "type": "t_mapping(t_address,t_bool)"
      },
      {
        "astId": 489,
        "contract": "contracts/ExchangeEx_Standalone.sol:ExchangeEx",
        "label": "owner",
        "offset": 0,
        "slot": "2",
        "type": "t_address"
      }
    ],
    "types": {
      "t_address": {
        "encoding": "inplace",
        "label": "address",
        "numberOfBytes": "20"
      },
      "t_bool": {
        "encoding": "inplace",
        "label": "bool",
        "numberOfBytes": "1"
      },
      "t_contract(IExchangeModule)474": {
        "encoding": "inplace",
        "label": "contract IExchangeModule",
        "numberOfBytes": "20"
      },
      "t_mapping(t_address,t_bool)": {
        "encoding": "mapping",
        "key": "t_address",
        "label": "mapping(address => bool)",
        "numberOfBytes": "32",
        "value": "t_bool"
      }
    }
  }
}